{
    "abi": [
        {
            "type": "function",
            "name": "afterTaskSubmission",
            "inputs": [
                {
                    "name": "_taskInfo",
                    "type": "tuple",
                    "internalType": "struct IAttestationCenter.TaskInfo",
                    "components": [
                        {
                            "name": "proofOfTask",
                            "type": "string",
                            "internalType": "string"
                        },
                        {
                            "name": "data",
                            "type": "bytes",
                            "internalType": "bytes"
                        },
                        {
                            "name": "taskPerformer",
                            "type": "address",
                            "internalType": "address"
                        },
                        {
                            "name": "taskDefinitionId",
                            "type": "uint16",
                            "internalType": "uint16"
                        }
                    ]
                },
                {
                    "name": "_isApproved",
                    "type": "bool",
                    "internalType": "bool"
                },
                {
                    "name": "_tpSignature",
                    "type": "bytes",
                    "internalType": "bytes"
                },
                {
                    "name": "_taSignature",
                    "type": "uint256[2]",
                    "internalType": "uint256[2]"
                },
                {
                    "name": "_attestersIds",
                    "type": "uint256[]",
                    "internalType": "uint256[]"
                }
            ],
            "outputs": [],
            "stateMutability": "nonpayable"
        },
        {
            "type": "function",
            "name": "beforeTaskSubmission",
            "inputs": [
                {
                    "name": "_taskInfo",
                    "type": "tuple",
                    "internalType": "struct IAttestationCenter.TaskInfo",
                    "components": [
                        {
                            "name": "proofOfTask",
                            "type": "string",
                            "internalType": "string"
                        },
                        {
                            "name": "data",
                            "type": "bytes",
                            "internalType": "bytes"
                        },
                        {
                            "name": "taskPerformer",
                            "type": "address",
                            "internalType": "address"
                        },
                        {
                            "name": "taskDefinitionId",
                            "type": "uint16",
                            "internalType": "uint16"
                        }
                    ]
                },
                {
                    "name": "_isApproved",
                    "type": "bool",
                    "internalType": "bool"
                },
                {
                    "name": "_tpSignature",
                    "type": "bytes",
                    "internalType": "bytes"
                },
                {
                    "name": "_taSignature",
                    "type": "uint256[2]",
                    "internalType": "uint256[2]"
                },
                {
                    "name": "_attestersIds",
                    "type": "uint256[]",
                    "internalType": "uint256[]"
                }
            ],
            "outputs": [],
            "stateMutability": "nonpayable"
        },
        {
            "type": "function",
            "name": "bridgeERC20AndCreateTask",
            "inputs": [
                {
                    "name": "_token",
                    "type": "address",
                    "internalType": "address"
                },
                {
                    "name": "_amount",
                    "type": "uint256",
                    "internalType": "uint256"
                },
                {
                    "name": "_chainId",
                    "type": "uint256",
                    "internalType": "uint256"
                }
            ],
            "outputs": [],
            "stateMutability": "nonpayable"
        },
        {
            "type": "event",
            "name": "CreateTaskSendERC20",
            "inputs": [
                {
                    "name": "sourceChainId",
                    "type": "uint256",
                    "indexed": true,
                    "internalType": "uint256"
                },
                {
                    "name": "token",
                    "type": "address",
                    "indexed": true,
                    "internalType": "address"
                },
                {
                    "name": "from",
                    "type": "address",
                    "indexed": false,
                    "internalType": "address"
                },
                {
                    "name": "to",
                    "type": "address",
                    "indexed": false,
                    "internalType": "address"
                },
                {
                    "name": "amount",
                    "type": "uint256",
                    "indexed": false,
                    "internalType": "uint256"
                },
                {
                    "name": "destinationChainId",
                    "type": "uint256",
                    "indexed": false,
                    "internalType": "uint256"
                },
                {
                    "name": "msgHash",
                    "type": "bytes32",
                    "indexed": false,
                    "internalType": "bytes32"
                }
            ],
            "anonymous": false
        }
    ],
    "bytecode": {
        "object": "0x6080604052348015600e575f5ffd5b506104338061001c5f395ff3fe608060405234801561000f575f5ffd5b506004361061003f575f3560e01c8063502f5bd014610043578063dd1a538714610043578063fcde44a31461005c575b5f5ffd5b61005a6100513660046102c5565b50505050505050565b005b61005a61006a366004610387565b6040516323b872dd60e01b8152336004820152306024820152604481018390526001600160a01b038416906323b872dd906064016020604051808303815f875af11580156100ba573d5f5f3e3d5ffd5b505050506040513d601f19601f820116820180604052508101906100de91906103c4565b504681036101245760405162461bcd60e51b815260206004820152600f60248201526e125b9d985b1a590818da185a5b9259608a1b604482015260640160405180910390fd5b604051631834867b60e31b81526001600160a01b038416600482015233602482015260448101839052606481018290525f90737cfbd302f1f8e02347862641973792cbd60c453f9063c1a433d8906084016020604051808303815f875af1158015610191573d5f5f3e3d5ffd5b505050506040513d601f19601f820116820180604052508101906101b591906103e6565b6040805133808252602082015290810185905260608101849052608081018290529091506001600160a01b0385169046907f2f0331e9e6ae0b6e79a0f08c7b69e375fd5a685cb53a26029dbc8554e27687009060a00160405180910390a350505050565b8015158114610226575f5ffd5b50565b5f5f83601f840112610239575f5ffd5b50813567ffffffffffffffff811115610250575f5ffd5b602083019150836020828501011115610267575f5ffd5b9250929050565b806040810183101561027e575f5ffd5b92915050565b5f5f83601f840112610294575f5ffd5b50813567ffffffffffffffff8111156102ab575f5ffd5b6020830191508360208260051b8501011115610267575f5ffd5b5f5f5f5f5f5f5f60c0888a0312156102db575f5ffd5b873567ffffffffffffffff8111156102f1575f5ffd5b88016080818b031215610302575f5ffd5b9650602088013561031281610219565b9550604088013567ffffffffffffffff81111561032d575f5ffd5b6103398a828b01610229565b909650945061034d90508960608a0161026e565b925060a088013567ffffffffffffffff811115610368575f5ffd5b6103748a828b01610284565b989b979a50959850939692959293505050565b5f5f5f60608486031215610399575f5ffd5b83356001600160a01b03811681146103af575f5ffd5b95602085013595506040909401359392505050565b5f602082840312156103d4575f5ffd5b81516103df81610219565b9392505050565b5f602082840312156103f6575f5ffd5b505191905056fea264697066735822122000486e969d335fa26308e74f07c440c035987c933695b7c4c01081223342c77664736f6c634300081b0033",
        "linkReferences": {}
    },
    "methodIdentifiers": {
        "afterTaskSubmission((string,bytes,address,uint16),bool,bytes,uint256[2],uint256[])": "dd1a5387",
        "beforeTaskSubmission((string,bytes,address,uint16),bool,bytes,uint256[2],uint256[])": "502f5bd0",
        "bridgeERC20AndCreateTask(address,uint256,uint256)": "fcde44a3"
    },
    "id": 30
}