{"abi":[{"type":"function","name":"relayERC20","inputs":[{"name":"_token","type":"address","internalType":"address"},{"name":"_from","type":"address","internalType":"address"},{"name":"_to","type":"address","internalType":"address"},{"name":"_amount","type":"uint256","internalType":"uint256"}],"outputs":[],"stateMutability":"nonpayable"},{"type":"function","name":"sendERC20","inputs":[{"name":"_token","type":"address","internalType":"address"},{"name":"_to","type":"address","internalType":"address"},{"name":"_amount","type":"uint256","internalType":"uint256"},{"name":"_chainId","type":"uint256","internalType":"uint256"}],"outputs":[{"name":"msgHash_","type":"bytes32","internalType":"bytes32"}],"stateMutability":"nonpayable"},{"type":"event","name":"RelayERC20","inputs":[{"name":"token","type":"address","indexed":true,"internalType":"address"},{"name":"from","type":"address","indexed":true,"internalType":"address"},{"name":"to","type":"address","indexed":true,"internalType":"address"},{"name":"amount","type":"uint256","indexed":false,"internalType":"uint256"}],"anonymous":false},{"type":"event","name":"SendERC20","inputs":[{"name":"token","type":"address","indexed":true,"internalType":"address"},{"name":"from","type":"address","indexed":true,"internalType":"address"},{"name":"to","type":"address","indexed":true,"internalType":"address"},{"name":"amount","type":"uint256","indexed":false,"internalType":"uint256"},{"name":"destination","type":"uint256","indexed":false,"internalType":"uint256"}],"anonymous":false},{"type":"error","name":"Unauthorized","inputs":[]},{"type":"error","name":"ZeroAddress","inputs":[]}],"bytecode":{"object":"0x6080604052348015600e575f5ffd5b506103328061001c5f395ff3fe608060405234801561000f575f5ffd5b5060043610610034575f3560e01c80637cfd6dbc14610038578063c1a433d81461004d575b5f5ffd5b61004b610046366004610275565b610072565b005b61006061005b3660046102bd565b61012c565b60405190815260200160405180910390f35b6040516318bf507760e01b81526001600160a01b038381166004830152602482018390528516906318bf5077906044015f604051808303815f87803b1580156100b9575f5ffd5b505af11580156100cb573d5f5f3e3d5ffd5b50505050816001600160a01b0316836001600160a01b0316856001600160a01b03167f538389eb6f370b4851ce2f642d98b538b9e2ee2f1ead7515695ee6c410c885e98460405161011e91815260200190565b60405180910390a450505050565b5f6001600160a01b0384166101545760405163d92e233d60e01b815260040160405180910390fd5b604051632b8c49e360e01b8152336004820152602481018490526001600160a01b03861690632b8c49e3906044015f604051808303815f87803b158015610199575f5ffd5b505af11580156101ab573d5f5f3e3d5ffd5b5050604080516001600160a01b03898116602483018190523360448401819052918a166064840181905260848085018b90528551808603909101815260a49094018552602080850180516001600160e01b0316631f3f5b6f60e21b1781528551902086518c81529182018b90528651909950949750909550919390927f0247bfe63a1aaa59e073e20b172889babfda8d3273b5798e0e9ac4388e6dd11c9281900390910190a450949350505050565b80356001600160a01b0381168114610270575f5ffd5b919050565b5f5f5f5f60808587031215610288575f5ffd5b6102918561025a565b935061029f6020860161025a565b92506102ad6040860161025a565b9396929550929360600135925050565b5f5f5f5f608085870312156102d0575f5ffd5b6102d98561025a565b93506102e76020860161025a565b9396939550505050604082013591606001359056fea26469706673582212208dedb4d331e097000c012ef24833b6a0fbcea83c741c838c2415a44231466ff964736f6c634300081b0033","linkReferences":{}},"methodIdentifiers":{"relayERC20(address,address,address,uint256)":"7cfd6dbc","sendERC20(address,address,uint256,uint256)":"c1a433d8"},"id":48}