{"abi":[{"type":"constructor","inputs":[{"name":"name","type":"string","internalType":"string"},{"name":"symbol","type":"string","internalType":"string"},{"name":"recipient","type":"address","internalType":"address"}],"stateMutability":"nonpayable"},{"type":"function","name":"DOMAIN_SEPARATOR","inputs":[],"outputs":[{"name":"","type":"bytes32","internalType":"bytes32"}],"stateMutability":"view"},{"type":"function","name":"allowance","inputs":[{"name":"owner","type":"address","internalType":"address"},{"name":"spender","type":"address","internalType":"address"}],"outputs":[{"name":"","type":"uint256","internalType":"uint256"}],"stateMutability":"view"},{"type":"function","name":"approve","inputs":[{"name":"spender","type":"address","internalType":"address"},{"name":"value","type":"uint256","internalType":"uint256"}],"outputs":[{"name":"","type":"bool","internalType":"bool"}],"stateMutability":"nonpayable"},{"type":"function","name":"balanceOf","inputs":[{"name":"account","type":"address","internalType":"address"}],"outputs":[{"name":"","type":"uint256","internalType":"uint256"}],"stateMutability":"view"},{"type":"function","name":"crosschainBurn","inputs":[{"name":"from","type":"address","internalType":"address"},{"name":"value","type":"uint256","internalType":"uint256"}],"outputs":[],"stateMutability":"nonpayable"},{"type":"function","name":"crosschainMint","inputs":[{"name":"to","type":"address","internalType":"address"},{"name":"value","type":"uint256","internalType":"uint256"}],"outputs":[],"stateMutability":"nonpayable"},{"type":"function","name":"decimals","inputs":[],"outputs":[{"name":"","type":"uint8","internalType":"uint8"}],"stateMutability":"view"},{"type":"function","name":"eip712Domain","inputs":[],"outputs":[{"name":"fields","type":"bytes1","internalType":"bytes1"},{"name":"name","type":"string","internalType":"string"},{"name":"version","type":"string","internalType":"string"},{"name":"chainId","type":"uint256","internalType":"uint256"},{"name":"verifyingContract","type":"address","internalType":"address"},{"name":"salt","type":"bytes32","internalType":"bytes32"},{"name":"extensions","type":"uint256[]","internalType":"uint256[]"}],"stateMutability":"view"},{"type":"function","name":"mint","inputs":[{"name":"to","type":"address","internalType":"address"},{"name":"amount","type":"uint256","internalType":"uint256"}],"outputs":[],"stateMutability":"nonpayable"},{"type":"function","name":"name","inputs":[],"outputs":[{"name":"","type":"string","internalType":"string"}],"stateMutability":"view"},{"type":"function","name":"nonces","inputs":[{"name":"owner","type":"address","internalType":"address"}],"outputs":[{"name":"","type":"uint256","internalType":"uint256"}],"stateMutability":"view"},{"type":"function","name":"permit","inputs":[{"name":"owner","type":"address","internalType":"address"},{"name":"spender","type":"address","internalType":"address"},{"name":"value","type":"uint256","internalType":"uint256"},{"name":"deadline","type":"uint256","internalType":"uint256"},{"name":"v","type":"uint8","internalType":"uint8"},{"name":"r","type":"bytes32","internalType":"bytes32"},{"name":"s","type":"bytes32","internalType":"bytes32"}],"outputs":[],"stateMutability":"nonpayable"},{"type":"function","name":"supportsInterface","inputs":[{"name":"interfaceId","type":"bytes4","internalType":"bytes4"}],"outputs":[{"name":"","type":"bool","internalType":"bool"}],"stateMutability":"view"},{"type":"function","name":"symbol","inputs":[],"outputs":[{"name":"","type":"string","internalType":"string"}],"stateMutability":"view"},{"type":"function","name":"totalSupply","inputs":[],"outputs":[{"name":"","type":"uint256","internalType":"uint256"}],"stateMutability":"view"},{"type":"function","name":"transfer","inputs":[{"name":"to","type":"address","internalType":"address"},{"name":"value","type":"uint256","internalType":"uint256"}],"outputs":[{"name":"","type":"bool","internalType":"bool"}],"stateMutability":"nonpayable"},{"type":"function","name":"transferFrom","inputs":[{"name":"from","type":"address","internalType":"address"},{"name":"to","type":"address","internalType":"address"},{"name":"value","type":"uint256","internalType":"uint256"}],"outputs":[{"name":"","type":"bool","internalType":"bool"}],"stateMutability":"nonpayable"},{"type":"event","name":"Approval","inputs":[{"name":"owner","type":"address","indexed":true,"internalType":"address"},{"name":"spender","type":"address","indexed":true,"internalType":"address"},{"name":"value","type":"uint256","indexed":false,"internalType":"uint256"}],"anonymous":false},{"type":"event","name":"CrosschainBurn","inputs":[{"name":"from","type":"address","indexed":true,"internalType":"address"},{"name":"amount","type":"uint256","indexed":false,"internalType":"uint256"},{"name":"sender","type":"address","indexed":true,"internalType":"address"}],"anonymous":false},{"type":"event","name":"CrosschainMint","inputs":[{"name":"to","type":"address","indexed":true,"internalType":"address"},{"name":"amount","type":"uint256","indexed":false,"internalType":"uint256"},{"name":"sender","type":"address","indexed":true,"internalType":"address"}],"anonymous":false},{"type":"event","name":"EIP712DomainChanged","inputs":[],"anonymous":false},{"type":"event","name":"Transfer","inputs":[{"name":"from","type":"address","indexed":true,"internalType":"address"},{"name":"to","type":"address","indexed":true,"internalType":"address"},{"name":"value","type":"uint256","indexed":false,"internalType":"uint256"}],"anonymous":false},{"type":"error","name":"ECDSAInvalidSignature","inputs":[]},{"type":"error","name":"ECDSAInvalidSignatureLength","inputs":[{"name":"length","type":"uint256","internalType":"uint256"}]},{"type":"error","name":"ECDSAInvalidSignatureS","inputs":[{"name":"s","type":"bytes32","internalType":"bytes32"}]},{"type":"error","name":"ERC20InsufficientAllowance","inputs":[{"name":"spender","type":"address","internalType":"address"},{"name":"allowance","type":"uint256","internalType":"uint256"},{"name":"needed","type":"uint256","internalType":"uint256"}]},{"type":"error","name":"ERC20InsufficientBalance","inputs":[{"name":"sender","type":"address","internalType":"address"},{"name":"balance","type":"uint256","internalType":"uint256"},{"name":"needed","type":"uint256","internalType":"uint256"}]},{"type":"error","name":"ERC20InvalidApprover","inputs":[{"name":"approver","type":"address","internalType":"address"}]},{"type":"error","name":"ERC20InvalidReceiver","inputs":[{"name":"receiver","type":"address","internalType":"address"}]},{"type":"error","name":"ERC20InvalidSender","inputs":[{"name":"sender","type":"address","internalType":"address"}]},{"type":"error","name":"ERC20InvalidSpender","inputs":[{"name":"spender","type":"address","internalType":"address"}]},{"type":"error","name":"ERC2612ExpiredSignature","inputs":[{"name":"deadline","type":"uint256","internalType":"uint256"}]},{"type":"error","name":"ERC2612InvalidSigner","inputs":[{"name":"signer","type":"address","internalType":"address"},{"name":"owner","type":"address","internalType":"address"}]},{"type":"error","name":"InvalidAccountNonce","inputs":[{"name":"account","type":"address","internalType":"address"},{"name":"currentNonce","type":"uint256","internalType":"uint256"}]},{"type":"error","name":"InvalidShortString","inputs":[]},{"type":"error","name":"StringTooLong","inputs":[{"name":"str","type":"string","internalType":"string"}]},{"type":"error","name":"Unauthorized","inputs":[]}],"bytecode":{"object":"0x610160604052348015610010575f5ffd5b5060405161183338038061183383398101604081905261002f916103bf565b6040805180820190915260018152603160f81b6020820152839081908185600361005983826104c8565b50600461006682826104c8565b5061007691508390506005610150565b61012052610085816006610150565b61014052815160208084019190912060e052815190820120610100524660a05261011160e05161010051604080517f8b73c3c69bb8fe3d512ecc4cf759cc79239f7b179b0ffacaa9a75d522b39400f60208201529081019290925260608201524660808201523060a08201525f9060c00160405160208183030381529060405280519060200120905090565b60805250503060c052504662014a340361014857610148816101356012600a610679565b610143906305f5e10061068e565b610182565b505050610710565b5f60208351101561016b57610164836101bf565b905061017c565b8161017684826104c8565b5060ff90505b92915050565b6001600160a01b0382166101b05760405163ec442f0560e01b81525f60048201526024015b60405180910390fd5b6101bb5f83836101fc565b5050565b5f5f829050601f815111156101e9578260405163305a27a960e01b81526004016101a791906106a5565b80516101f4826106da565b179392505050565b6001600160a01b038316610226578060025f82825461021b91906106fd565b909155506102969050565b6001600160a01b0383165f90815260208190526040902054818110156102785760405163391434e360e21b81526001600160a01b038516600482015260248101829052604481018390526064016101a7565b6001600160a01b0384165f9081526020819052604090209082900390555b6001600160a01b0382166102b2576002805482900390556102d0565b6001600160a01b0382165f9081526020819052604090208054820190555b816001600160a01b0316836001600160a01b03167fddf252ad1be2c89b69c2b068fc378daa952ba7f163c4a11628f55a4df523b3ef8360405161031591815260200190565b60405180910390a3505050565b634e487b7160e01b5f52604160045260245ffd5b5f82601f830112610345575f5ffd5b81516001600160401b0381111561035e5761035e610322565b604051601f8201601f19908116603f011681016001600160401b038111828210171561038c5761038c610322565b6040528181528382016020018510156103a3575f5ffd5b8160208501602083015e5f918101602001919091529392505050565b5f5f5f606084860312156103d1575f5ffd5b83516001600160401b038111156103e6575f5ffd5b6103f286828701610336565b602086015190945090506001600160401b0381111561040f575f5ffd5b61041b86828701610336565b604086015190935090506001600160a01b0381168114610439575f5ffd5b809150509250925092565b600181811c9082168061045857607f821691505b60208210810361047657634e487b7160e01b5f52602260045260245ffd5b50919050565b601f8211156104c357805f5260205f20601f840160051c810160208510156104a15750805b601f840160051c820191505b818110156104c0575f81556001016104ad565b50505b505050565b81516001600160401b038111156104e1576104e1610322565b6104f5816104ef8454610444565b8461047c565b6020601f821160018114610527575f83156105105750848201515b5f19600385901b1c1916600184901b1784556104c0565b5f84815260208120601f198516915b828110156105565787850151825560209485019460019092019101610536565b508482101561057357868401515f19600387901b60f8161c191681555b50505050600190811b01905550565b634e487b7160e01b5f52601160045260245ffd5b6001815b60018411156105d1578085048111156105b5576105b5610582565b60018416156105c357908102905b60019390931c92800261059a565b935093915050565b5f826105e75750600161017c565b816105f357505f61017c565b816001811461060957600281146106135761062f565b600191505061017c565b60ff84111561062457610624610582565b50506001821b61017c565b5060208310610133831016604e8410600b8410161715610652575081810a61017c565b61065e5f198484610596565b805f190482111561067157610671610582565b029392505050565b5f61068760ff8416836105d9565b9392505050565b808202811582820484141761017c5761017c610582565b602081525f82518060208401528060208501604085015e5f604082850101526040601f19601f83011684010191505092915050565b80516020808301519190811015610476575f1960209190910360031b1b16919050565b8082018082111561017c5761017c610582565b60805160a05160c05160e0516101005161012051610140516110d26107615f395f6108f601525f6108c901525f61087201525f61084a01525f6107a501525f6107cf01525f6107f901526110d25ff3fe608060405234801561000f575f5ffd5b5060043610610106575f3560e01c80633644e5151161009e57806384b0196e1161006e57806384b0196e1461020c57806395d89b4114610227578063a9059cbb1461022f578063d505accf14610242578063dd62ed3e14610255575f5ffd5b80633644e515146101b657806340c10f19146101be57806370a08231146101d15780637ecebe00146101f9575f5ffd5b806318bf5077116100d957806318bf50771461016c57806323b872dd146101815780632b8c49e314610194578063313ce567146101a7575f5ffd5b806301ffc9a71461010a57806306fdde0314610132578063095ea7b31461014757806318160ddd1461015a575b5f5ffd5b61011d610118366004610df9565b61028d565b60405190151581526020015b60405180910390f35b61013a6102c3565b6040516101299190610e55565b61011d610155366004610e82565b610353565b6002545b604051908152602001610129565b61017f61017a366004610e82565b61036a565b005b61011d61018f366004610eaa565b6103c2565b61017f6101a2366004610e82565b6103e5565b60405160128152602001610129565b61015e610435565b61017f6101cc366004610e82565b610443565b61015e6101df366004610ee4565b6001600160a01b03165f9081526020819052604090205490565b61015e610207366004610ee4565b610451565b61021461046e565b6040516101299796959493929190610efd565b61013a6104b0565b61011d61023d366004610e82565b6104bf565b61017f610250366004610f93565b6104cc565b61015e610263366004611000565b6001600160a01b039182165f90815260016020908152604080832093909416825291909152205490565b5f6001600160e01b03198216630cccc66560e21b14806102bd57506301ffc9a760e01b6001600160e01b03198316145b92915050565b6060600380546102d290611031565b80601f01602080910402602001604051908101604052809291908181526020018280546102fe90611031565b80156103495780601f1061032057610100808354040283529160200191610349565b820191905f5260205f20905b81548152906001019060200180831161032c57829003601f168201915b5050505050905090565b5f33610360818585610607565b5060019392505050565b61037333610619565b61037d8282610658565b60405181815233906001600160a01b038416907fde22baff038e3a3e08407cbdf617deed74e869a7ba517df611e33131c6e6ea04906020015b60405180910390a35050565b5f336103cf85828561068c565b6103da858585610708565b506001949350505050565b6103ee33610619565b6103f88282610765565b60405181815233906001600160a01b038416907fb90795a66650155983e242cac3e1ac1a4dc26f8ed2987f3ce416a34e00111fd4906020016103b6565b5f61043e610799565b905090565b61044d8282610658565b5050565b6001600160a01b0381165f908152600760205260408120546102bd565b5f6060805f5f5f606061047f6108c2565b6104876108ef565b604080515f80825260208201909252600f60f81b9b939a50919850469750309650945092509050565b6060600480546102d290611031565b5f33610360818585610708565b834211156104f55760405163313c898160e11b8152600481018590526024015b60405180910390fd5b5f7f6e71edae12b1b97f4d1f60370fef10105fa2faae0126114a169c64845d6126c98888886105408c6001600160a01b03165f90815260076020526040902080546001810190915590565b6040805160208101969096526001600160a01b0394851690860152929091166060840152608083015260a082015260c0810186905260e0016040516020818303038152906040528051906020012090505f61059a8261091c565b90505f6105a982878787610948565b9050896001600160a01b0316816001600160a01b0316146105f0576040516325c0072360e11b81526001600160a01b0380831660048301528b1660248201526044016104ec565b6105fb8a8a8a610607565b50505050505050505050565b6106148383836001610974565b505050565b6001600160a01b038116737cfbd302f1f8e02347862641973792cbd60c453f14610655576040516282b42960e81b815260040160405180910390fd5b50565b6001600160a01b0382166106815760405163ec442f0560e01b81525f60048201526024016104ec565b61044d5f8383610a46565b6001600160a01b038381165f908152600160209081526040808320938616835292905220545f1981101561070257818110156106f457604051637dc7a0d960e11b81526001600160a01b038416600482015260248101829052604481018390526064016104ec565b61070284848484035f610974565b50505050565b6001600160a01b03831661073157604051634b637e8f60e11b81525f60048201526024016104ec565b6001600160a01b03821661075a5760405163ec442f0560e01b81525f60048201526024016104ec565b610614838383610a46565b6001600160a01b03821661078e57604051634b637e8f60e11b81525f60048201526024016104ec565b61044d825f83610a46565b5f306001600160a01b037f0000000000000000000000000000000000000000000000000000000000000000161480156107f157507f000000000000000000000000000000000000000000000000000000000000000046145b1561081b57507f000000000000000000000000000000000000000000000000000000000000000090565b61043e604080517f8b73c3c69bb8fe3d512ecc4cf759cc79239f7b179b0ffacaa9a75d522b39400f60208201527f0000000000000000000000000000000000000000000000000000000000000000918101919091527f000000000000000000000000000000000000000000000000000000000000000060608201524660808201523060a08201525f9060c00160405160208183030381529060405280519060200120905090565b606061043e7f00000000000000000000000000000000000000000000000000000000000000006005610b6c565b606061043e7f00000000000000000000000000000000000000000000000000000000000000006006610b6c565b5f6102bd610928610799565b8360405161190160f01b8152600281019290925260228201526042902090565b5f5f5f5f61095888888888610c15565b9250925092506109688282610cdd565b50909695505050505050565b6001600160a01b03841661099d5760405163e602df0560e01b81525f60048201526024016104ec565b6001600160a01b0383166109c657604051634a1406b160e11b81525f60048201526024016104ec565b6001600160a01b038085165f908152600160209081526040808320938716835292905220829055801561070257826001600160a01b0316846001600160a01b03167f8c5be1e5ebec7d5bd14f71427d1e84f3dd0314c0f7b2291e5b200ac8c7c3b92584604051610a3891815260200190565b60405180910390a350505050565b6001600160a01b038316610a70578060025f828254610a659190611069565b90915550610ae09050565b6001600160a01b0383165f9081526020819052604090205481811015610ac25760405163391434e360e21b81526001600160a01b038516600482015260248101829052604481018390526064016104ec565b6001600160a01b0384165f9081526020819052604090209082900390555b6001600160a01b038216610afc57600280548290039055610b1a565b6001600160a01b0382165f9081526020819052604090208054820190555b816001600160a01b0316836001600160a01b03167fddf252ad1be2c89b69c2b068fc378daa952ba7f163c4a11628f55a4df523b3ef83604051610b5f91815260200190565b60405180910390a3505050565b606060ff8314610b8657610b7f83610d95565b90506102bd565b818054610b9290611031565b80601f0160208091040260200160405190810160405280929190818152602001828054610bbe90611031565b8015610c095780601f10610be057610100808354040283529160200191610c09565b820191905f5260205f20905b815481529060010190602001808311610bec57829003601f168201915b505050505090506102bd565b5f80807f7fffffffffffffffffffffffffffffff5d576e7357a4501ddfe92f46681b20a0841115610c4e57505f91506003905082610cd3565b604080515f808252602082018084528a905260ff891692820192909252606081018790526080810186905260019060a0016020604051602081039080840390855afa158015610c9f573d5f5f3e3d5ffd5b5050604051601f1901519150506001600160a01b038116610cca57505f925060019150829050610cd3565b92505f91508190505b9450945094915050565b5f826003811115610cf057610cf0611088565b03610cf9575050565b6001826003811115610d0d57610d0d611088565b03610d2b5760405163f645eedf60e01b815260040160405180910390fd5b6002826003811115610d3f57610d3f611088565b03610d605760405163fce698f760e01b8152600481018290526024016104ec565b6003826003811115610d7457610d74611088565b0361044d576040516335e2f38360e21b8152600481018290526024016104ec565b60605f610da183610dd2565b6040805160208082528183019092529192505f91906020820181803683375050509182525060208101929092525090565b5f60ff8216601f8111156102bd57604051632cd44ac360e21b815260040160405180910390fd5b5f60208284031215610e09575f5ffd5b81356001600160e01b031981168114610e20575f5ffd5b9392505050565b5f81518084528060208401602086015e5f602082860101526020601f19601f83011685010191505092915050565b602081525f610e206020830184610e27565b80356001600160a01b0381168114610e7d575f5ffd5b919050565b5f5f60408385031215610e93575f5ffd5b610e9c83610e67565b946020939093013593505050565b5f5f5f60608486031215610ebc575f5ffd5b610ec584610e67565b9250610ed360208501610e67565b929592945050506040919091013590565b5f60208284031215610ef4575f5ffd5b610e2082610e67565b60ff60f81b8816815260e060208201525f610f1b60e0830189610e27565b8281036040840152610f2d8189610e27565b606084018890526001600160a01b038716608085015260a0840186905283810360c0850152845180825260208087019350909101905f5b81811015610f82578351835260209384019390920191600101610f64565b50909b9a5050505050505050505050565b5f5f5f5f5f5f5f60e0888a031215610fa9575f5ffd5b610fb288610e67565b9650610fc060208901610e67565b95506040880135945060608801359350608088013560ff81168114610fe3575f5ffd5b9699959850939692959460a0840135945060c09093013592915050565b5f5f60408385031215611011575f5ffd5b61101a83610e67565b915061102860208401610e67565b90509250929050565b600181811c9082168061104557607f821691505b60208210810361106357634e487b7160e01b5f52602260045260245ffd5b50919050565b808201808211156102bd57634e487b7160e01b5f52601160045260245ffd5b634e487b7160e01b5f52602160045260245ffdfea2646970667358221220b0daf21023b108b67fa3a7e830242e22e1791ec0ebc1fdbb48aa9349236aa8d964736f6c634300081b0033","linkReferences":{}},"methodIdentifiers":{"DOMAIN_SEPARATOR()":"3644e515","allowance(address,address)":"dd62ed3e","approve(address,uint256)":"095ea7b3","balanceOf(address)":"70a08231","crosschainBurn(address,uint256)":"2b8c49e3","crosschainMint(address,uint256)":"18bf5077","decimals()":"313ce567","eip712Domain()":"84b0196e","mint(address,uint256)":"40c10f19","name()":"06fdde03","nonces(address)":"7ecebe00","permit(address,address,uint256,uint256,uint8,bytes32,bytes32)":"d505accf","supportsInterface(bytes4)":"01ffc9a7","symbol()":"95d89b41","totalSupply()":"18160ddd","transfer(address,uint256)":"a9059cbb","transferFrom(address,address,uint256)":"23b872dd"},"id":40}